:1000000010C02AC02AC028C027C026C030C03EC0A9
:1000100023C022C021C020C01FC01EC01DC01CC0E4
:100020001BC011241FBECFE5D1E0DEBFCDBF10E065
:10003000A0E6B0E0E2E8F1E002C005900D92A03742
:10004000B107D9F710E0A0E7B0E001C01D92A237D8
:10005000B107E1F774D093C0D3CF1F920F920FB6C0
:100060000F9211240F900FBE0F901F9018951F92A2
:100070000F920FB60F9211248F9387E088BB1BBAA3
:100080008F910F900FBE0F901F9018951F920F9297
:100090000FB60F9211242F933F934F935F936F935B
:1000A0007F938F939F9384E088BB80E48BBB1DBCC0
:1000B0001CBC209168003091690080916A00909189
:1000C0006B0040916C0050916D00B901681B790B79
:1000D0004617570750F48217930758F4241B350B23
:1000E000309369002093680004C090936900809366
:1000F00068009F918F917F916F915F914F913F9198
:100100002F910F900FBE0F901F90189580E48ABB1F
:100110001BBA87E087BB88BB82E08EBD78948BB723
:1001200080618BBF86E08CB98FE382BB8CED95E05C
:100130009BBD8ABD88E99AE399BD88BD0895E6DF35
:1001400089B38F7719F089B3809371002091710082
:1001500080917000821750F480916800909169003E
:100160008C599F4F90936900809368002093700092
:1001700080916800909169009BBD8ABDE1CFF894A1
:02018000FFCFAF
:10018200FF01FE02FC046400DC05DC0505007D00C5
:00000001FF
