:1000000010C02AC02AC028C027C026C025C024C0CE
:1000100023C022C021C020C01FC01EC01DC01CC0E4
:100020001BC011241FBECFE5D1E0DEBFCDBF10E065
:10003000A0E6B0E0E6EDF4E002C005900D92AC362B
:10004000B107D9F710E0ACE6B0E001C01D92A738C7
:10005000B107E1F744D03DC2D3CF1F920F920FB644
:100060000F9211248F9389B380936D008F910F901D
:100070000FBE0F901F9018958417950710F0C09A27
:1000800001C0C0988617970710F0C19A01C0C198A7
:100090008217930710F0C29A0895C298089580E4D9
:1000A0008ABB1BBA87E087BB88BB81E08EBD789492
:1000B0008BB780618BBF8FE382BB89B380936D0068
:1000C00080916900809382008093810080938000FA
:1000D00080937F0080937E0080937D000895DFDF12
:1000E000C4E6D0E000E213E08091660090916700E2
:1000F0002CB53DB528173907D8F320916E00309103
:100100006F008091640090916500F0916200909082
:1001100060002817390708F4EEC02091750030916F
:100120007600309374002093730010927600109242
:10013000750040916D00A0908200E091690045FF3C
:1001400009C0AE1207C08091630090E090937600E2
:1001500080937500B090810043FF0EC0BE120CC0AA
:10016000509163008091750090917600850F911DEC
:100170009093760080937500C090800041FF0EC080
:10018000CE120CC050916300809175009091760062
:10019000850F911D9093760080937500D0907F001D
:1001A00040FF0EC0DE120CC05091630080917500BC
:1001B00090917600850F911D909376008093750045
:1001C000E0907E0044FF0EC0EE120CC05091630020
:1001D0008091750090917600850F911D9093760027
:1001E000809375008091790090917A0090937800C7
:1001F0008093770010927A0010927900F0907D0041
:1002000042FF0CC0FE120AC04091630050E05195BD
:100210004195510950937A004093790040917500BF
:1002200050917600421753076CF4B901641B750BAB
:100230002091710030917200260F371F30937200A9
:10024000209371002091790030917A0082179307F2
:1002500064F4821B930B2091710030917200280F7F
:10026000391F3093720020937100209170008091AB
:100270006800281768F080917100909172006FE516
:1002800070E0EFD0BE01FED07093720060937100F9
:10029000AE1618F4A394A0928200BE1618F4B3947C
:1002A000B0928100CE1618F4C394C0928000DE167E
:1002B00018F4D394D0927F00EE1618F4E394E092F1
:1002C0007E00FE1618F4F394F0927D008091610098
:1002D0008F1718F48F5F8093610080916C008915EF
:1002E00018F48F5F80936C002F5F20937000109242
:1002F0006F0010926E00A0917100B0917200209179
:10030000790030917A002A0F3B1F809175009091FF
:100310007600280F391F30937C0020937B00243611
:10032000310574F0109261008091630090E06CEFF1
:100330007FEF97D08A0F9B1F90937200809371007C
:100340005091610041E05F1340E02115310571F4E7
:10035000442361F01092860010928500D0936B00C8
:10036000C0936A0010928400109283001216130644
:100370008CF4442379F03093860020938500CE01DD
:10038000821B930B90936B0080936A001092840001
:1003900010928300C9018C599F4F8436910590F4C7
:1003A000442381F0109286001092850090936B0098
:1003B00080936A0088279927821B930B909384006F
:1003C000809383002C393F4F7CF4442369F01092D2
:1003D00086001092850010926B0010926A00D093F4
:1003E0008400C093830010C05F1770F410938600E0
:1003F0000093850010936B0000936A0010938400B3
:100400000093830010926C0080916C00992D96955A
:10041000981718F4891508F4DE9A90916C00809171
:100420006000981301C0DE98209183003091840011
:1004300040916A0050916B00609185007091860038
:1004400080916E0090916F0017DE80916E00909108
:100450006F00019690936F0080936E001DBC1CBCD2
:1004600043CE0024552704C0080E591F880F991F3A
:10047000009729F076956795B8F37105B9F7802D47
:10048000952F089597FB072E16F4009406D077FD5C
:1004900008D00BD007FC05D03EF4909581959F4F76
:1004A0000895709561957F4F0895AA1BBB1B51E17C
:1004B00007C0AA1FBB1FA617B70710F0A61BB70BD4
:1004C000881F991F5A95A9F780959095BC01CD0179
:0604D0000895F894FFCF2F
:0C04D6001402024620030A000505010084
:00000001FF
