:1000000010C02AC02AC028C027C026C035C043C09F
:1000100023C022C021C020C01FC01EC01DC01CC0E4
:100020001BC011241FBECFE5D1E0DEBFCDBF10E065
:10003000A0E6B0E0ECE7F1E002C005900D92A43636
:10004000B107D9F720E0A4E6B0E001C01D92A736C1
:10005000B207E1F769D090C0D3CF1F920F920FB6CD
:100060000F9211248F9389B3809366008F910F9024
:100070000FBE0F901F9018951F920F920FB60F9200
:1000800011248F9387E088BB1BBA8F910F900FBE0E
:100090000F901F9018951F920F920FB60F92112478
:1000A0002F933F938F939F9381E088BB80E48BBB1A
:1000B0001DBC1CBC209164003091650080916000E3
:1000C000909161008217930730F4281B390B30930D
:1000D0006500209364009F918F913F912F910F9025
:1000E0000FBE0F901F90189580E48ABB1BBA87E063
:1000F00087BB88BB82E08EBD78948BB780618BBF55
:1001000086E08CB98FE382BB80916200909163009E
:100110009BBD8ABD809162009091630064E170E0B4
:100120001AD099BD88BD0895DFDF28EE33E08091B5
:100130006400909165004091620050916300840FCB
:10014000951F9BBD8ABD89B38F7389F3309365007A
:1001500020936400ECCF0024552704C0080E591FDB
:10016000880F991F009729F076956795B8F3710568
:0C017000B9F7802D952F0895F894FFCF6B
:04017C002300E80371
:00000001FF
