:1000000010C02AC02AC028C027C026C025C024C0CE
:1000100023C022C021C020C01FC01EC01DC01CC0E4
:100020001BC011241FBECFE5D1E0DEBFCDBF10E065
:10003000A0E6B0E0E4EAF3E002C005900D92AC3631
:10004000B107D9F710E0ACE6B0E001C01D92A738C7
:10005000B107E1F73CD0A4C1D3CF1F920F920FB6E6
:100060000F9211248F9389B380936D008F910F901D
:100070000FBE0F901F9018958617970720F0DE9AF5
:10008000C098C1980895DE98C09AC19A089580E4F6
:100090008ABB1BBA87E087BB88BB81E08EBD7894A2
:1000A0008BB780618BBF8FE382BB89B380936D0078
:1000B000809169008093820080938100809380000A
:1000C00080937F0080937E0080937D000895DFDF22
:1000D00004E610E0CEEBD5E08091660090916700D9
:1000E0002CB53DB528173907D8F320916E00309113
:1000F0006F0080916400909165002817390708F41B
:10010000EBC0E0917500F0917600F0937400E093FD
:1001100073001092760010927500A0916D00C0904F
:100120008200F0906900A5FF09C0CF1007C0809140
:10013000630090E09093760080937500D0908100EA
:10014000A3FF11C0DF100FC02091630030E0220F29
:10015000331F8091750090917600820F931F9093CA
:10016000760080937500E0908000A1FF13C0EF102F
:1001700011C02091630030E0220F331F220F331F84
:100180008091750090917600820F931F9093760076
:10019000809375002091790030917A003093780037
:1001A0002093770010927A0010927900A0907F003F
:1001B000A0FF0CC0AF100AC08091630090E06CEF0C
:1001C0007FEFB6D090937A0080937900B0907E0054
:1001D000A2FF12C0BF1010C08091630090E06EEFCC
:1001E0007FEFA6D04091790050917A00480F591FB7
:1001F00050937A004093790040917D00A4FF0EC097
:100200004F110CC0509163008091790090917A0059
:10021000851B910990937A008093790080917500F5
:10022000909176008E179F0764F4E81BF90B80917C
:100230007100909172008E0F9F1F909372008093B7
:1002400071008091790090917A002817390764F441
:10025000281B390B8091710090917200820F931FBF
:1002600090937200809371002091700080916800DB
:10027000281768F080917100909172006FE570E02E
:1002800057D0B80166D07093720060937100CF149C
:1002900018F4C394C0928200DF1418F4D394D0925F
:1002A0008100EF1418F4E394E0928000AF1418F486
:1002B000A394A0927F00BF1418F4B394B0927E0070
:1002C0004F1518F44F5F40937D002F5F209370000F
:1002D00010926F0010926E008091710090917200E8
:1002E0002091790030917A00820F931F2091750040
:1002F00030917600820F931F90937C0080937B0057
:10030000BE01681B790B7093860060938500809115
:100310006E0090916F00B0DE80916E0090916F0042
:10032000019690936F0080936E001DBC1CBCD4CED0
:100330000024552704C0080E591F880F991F0097E5
:1003400029F076956795B8F37105B9F7802D952F4B
:10035000089597FB072E16F4009406D077FD08D079
:100360000BD007FC05D03EF4909581959F4F0895E2
:10037000709561957F4F0895AA1BBB1B51E107C083
:10038000AA1FBB1FA617B70710F0A61BB70B881F25
:10039000991F5A95A9F780959095BC01CD010895B4
:0403A000F894FFCFFF
:0C03A4001402020A40060A0005050100D0
:00000001FF
