:1000000010C017C016C015C014C013C013C01EC046
:1000100010C00FC00EC00DC00CC00BC00AC009C07C
:1000200008C011241FBECFE5D1E0DEBFCDBF49D04F
:100030004AC0E6CF1F920F920FB60F92112418BA42
:100040001BBA0F900FBE0F901F9018951F920F9222
:100050000FB60F9211242F938F939F9387E088BB45
:1000600084E08BBB1DBC1CBC8AB59BB501969BBDB7
:100070008ABD8AB59BB58838974021F484EC93E01B
:100080009BBD8ABD9F918F912F910F900FBE0F90B6
:100090001F90189584E48ABB1BBA87E087BB88BB96
:1000A00081E08EBD78948BB780618BBF86E08CB980
:1000B00084EC93E09BBD8ABD84ED92E199BD88BD3F
:0A00C0000895E8DFFFCFF894FFCFAA
:00000001FF
