:1000000010C02AC02AC028C027C026C035C043C09F
:1000100023C022C021C020C01FC01EC01DC01CC0E4
:100020001BC011241FBECFE5D1E0DEBFCDBF10E065
:10003000A0E6B0E0EEEAF1E002C005900D92A8362D
:10004000B107D9F720E0A8E6B0E001C01D92AB36B9
:10005000B207E1F75FD0A9C0D3CF1F920F920FB6BE
:100060000F9211248F9389B380936A008F910F9020
:100070000FBE0F901F9018951F920F920FB60F9200
:1000800011248F9387E088BB1BBA8F910F900FBE0E
:100090000F901F9018951F920F920FB60F92112478
:1000A0008F939F9382E088BB80E48BBB1DBC1CBCFC
:1000B0008091680090916900009729F001979093D2
:1000C0006900809368009F918F910F900FBE0F90F1
:1000D0001F90189580E48ABB1BBA87E087BB88BB5A
:1000E00082E08EBD78948BB780618BBF86E08CB93F
:1000F0008FE382BB80916600909167009BBD8ABDB3
:10010000809166009091670064E170E03DD099BDF8
:1001100088BD0895DFDF809160009091610020919B
:10012000660030916700820F931F9BBD8ABD89B323
:100130008A7259F08091620090916300880F991F34
:10014000909361008093600007C089B3857169F066
:10015000109261001092600080916400909165009F
:100160009093690080936800D6CF80916800909149
:100170006900892B81F680916200909163009093D1
:10018000610080936000C7CF0024552704C0080E8B
:10019000591F880F991F009729F076956795B8F336
:0E01A0007105B9F7802D952F0895F894FFCFC3
:0801AE00DB01DB011E00E80388
:00000001FF
