:1000000010C02AC02AC028C027C026C035C043C09F
:1000100023C022C021C020C01FC01EC01DC01CC0E4
:100020001BC011241FBECFE5D1E0DEBFCDBF10E065
:10003000A0E6B0E0E6ECF1E002C005900D92A83633
:10004000B107D9F720E0A8E6B0E001C01D92A936BB
:10005000B207E1F786D0B5C0D3CF1F920F920FB68B
:100060000F9211248F9389B3809368008F910F9022
:100070000FBE0F901F9018951F920F920FB60F9200
:1000800011248F9387E088BB1BBA8F910F900FBE0E
:100090000F901F9018951F920F920FB60F92112478
:1000A0002F933F934F935F936F937F938F939F9380
:1000B00081E088BB80E48BBB1DBC1CBC80916000D0
:1000C00090916100609162007091630040916400C2
:1000D000509165009C01261B370B37FF03C03195FB
:1000E000219531094217530778F46817790718F4F6
:1000F000841B950B05C08617970730F4840F951F56
:1001000090936100809360009F918F917F916F9198
:100110005F914F913F912F910F900FBE0F901F90C5
:10012000189580E48ABB1BBA87E087BB88BB82E056
:100130008EBD78948BB780618BBF86E08CB98FE3DE
:1001400082BB80916600909167009BBD8ABD8091C3
:1001500066009091670064E170E022D099BD88BD8F
:100160000895DFDF28EE33E0809160009091610018
:100170004091660050916700840F951F9BBD8ABD1A
:1001800089B38A7229F03093610020936000ECCF2C
:1001900089B3857149F31092610010926000E4CF39
:1001A0000024552704C0080E591F880F991F009777
:1001B00029F076956795B8F37105B9F7802D952FDD
:0601C0000895F894FFCF42
:0801C600F401F4012300E80339
:00000001FF
